{
  "_format": "hh-sol-artifact-1",
  "contractName": "PoDNFT",
  "sourceName": "contracts/PoDNFT.sol",
  "abi": [
    {
      "inputs": [],
      "stateMutability": "nonpayable",
      "type": "constructor"
    },
    {
      "anonymous": false,
      "inputs": [
        {
          "indexed": true,
          "internalType": "address",
          "name": "owner",
          "type": "address"
        },
        {
          "indexed": true,
          "internalType": "address",
          "name": "approved",
          "type": "address"
        },
        {
          "indexed": true,
          "internalType": "uint256",
          "name": "tokenId",
          "type": "uint256"
        }
      ],
      "name": "Approval",
      "type": "event"
    },
    {
      "anonymous": false,
      "inputs": [
        {
          "indexed": true,
          "internalType": "address",
          "name": "owner",
          "type": "address"
        },
        {
          "indexed": true,
          "internalType": "address",
          "name": "operator",
          "type": "address"
        },
        {
          "indexed": false,
          "internalType": "bool",
          "name": "approved",
          "type": "bool"
        }
      ],
      "name": "ApprovalForAll",
      "type": "event"
    },
    {
      "anonymous": false,
      "inputs": [
        {
          "indexed": true,
          "internalType": "address",
          "name": "previousOwner",
          "type": "address"
        },
        {
          "indexed": true,
          "internalType": "address",
          "name": "newOwner",
          "type": "address"
        }
      ],
      "name": "OwnershipTransferred",
      "type": "event"
    },
    {
      "anonymous": false,
      "inputs": [
        {
          "indexed": false,
          "internalType": "address",
          "name": "account",
          "type": "address"
        }
      ],
      "name": "Paused",
      "type": "event"
    },
    {
      "anonymous": false,
      "inputs": [
        {
          "indexed": true,
          "internalType": "address",
          "name": "from",
          "type": "address"
        },
        {
          "indexed": true,
          "internalType": "address",
          "name": "to",
          "type": "address"
        },
        {
          "indexed": true,
          "internalType": "uint256",
          "name": "tokenId",
          "type": "uint256"
        }
      ],
      "name": "Transfer",
      "type": "event"
    },
    {
      "anonymous": false,
      "inputs": [
        {
          "indexed": false,
          "internalType": "address",
          "name": "account",
          "type": "address"
        }
      ],
      "name": "Unpaused",
      "type": "event"
    },
    {
      "inputs": [
        {
          "internalType": "address",
          "name": "to",
          "type": "address"
        },
        {
          "internalType": "uint256",
          "name": "tokenId",
          "type": "uint256"
        }
      ],
      "name": "approve",
      "outputs": [],
      "stateMutability": "nonpayable",
      "type": "function"
    },
    {
      "inputs": [
        {
          "internalType": "bytes32",
          "name": "projectIdHash",
          "type": "bytes32"
        },
        {
          "internalType": "address",
          "name": "owner",
          "type": "address"
        }
      ],
      "name": "approveProject",
      "outputs": [],
      "stateMutability": "nonpayable",
      "type": "function"
    },
    {
      "inputs": [
        {
          "internalType": "bytes32",
          "name": "",
          "type": "bytes32"
        }
      ],
      "name": "approvedProjectOwners",
      "outputs": [
        {
          "internalType": "address",
          "name": "",
          "type": "address"
        }
      ],
      "stateMutability": "view",
      "type": "function"
    },
    {
      "inputs": [
        {
          "internalType": "address",
          "name": "owner",
          "type": "address"
        }
      ],
      "name": "balanceOf",
      "outputs": [
        {
          "internalType": "uint256",
          "name": "",
          "type": "uint256"
        }
      ],
      "stateMutability": "view",
      "type": "function"
    },
    {
      "inputs": [
        {
          "internalType": "uint256",
          "name": "tokenId",
          "type": "uint256"
        }
      ],
      "name": "getApproved",
      "outputs": [
        {
          "internalType": "address",
          "name": "",
          "type": "address"
        }
      ],
      "stateMutability": "view",
      "type": "function"
    },
    {
      "inputs": [
        {
          "internalType": "address",
          "name": "owner",
          "type": "address"
        },
        {
          "internalType": "address",
          "name": "operator",
          "type": "address"
        }
      ],
      "name": "isApprovedForAll",
      "outputs": [
        {
          "internalType": "bool",
          "name": "",
          "type": "bool"
        }
      ],
      "stateMutability": "view",
      "type": "function"
    },
    {
      "inputs": [],
      "name": "name",
      "outputs": [
        {
          "internalType": "string",
          "name": "",
          "type": "string"
        }
      ],
      "stateMutability": "view",
      "type": "function"
    },
    {
      "inputs": [
        {
          "internalType": "bytes32",
          "name": "",
          "type": "bytes32"
        },
        {
          "internalType": "bytes32",
          "name": "",
          "type": "bytes32"
        }
      ],
      "name": "nftOwners",
      "outputs": [
        {
          "internalType": "address",
          "name": "",
          "type": "address"
        }
      ],
      "stateMutability": "view",
      "type": "function"
    },
    {
      "inputs": [],
      "name": "owner",
      "outputs": [
        {
          "internalType": "address",
          "name": "",
          "type": "address"
        }
      ],
      "stateMutability": "view",
      "type": "function"
    },
    {
      "inputs": [
        {
          "internalType": "uint256",
          "name": "tokenId",
          "type": "uint256"
        }
      ],
      "name": "ownerOf",
      "outputs": [
        {
          "internalType": "address",
          "name": "",
          "type": "address"
        }
      ],
      "stateMutability": "view",
      "type": "function"
    },
    {
      "inputs": [],
      "name": "pause",
      "outputs": [],
      "stateMutability": "nonpayable",
      "type": "function"
    },
    {
      "inputs": [],
      "name": "paused",
      "outputs": [
        {
          "internalType": "bool",
          "name": "",
          "type": "bool"
        }
      ],
      "stateMutability": "view",
      "type": "function"
    },
    {
      "inputs": [
        {
          "internalType": "bytes32",
          "name": "",
          "type": "bytes32"
        }
      ],
      "name": "projectTokenIdMap",
      "outputs": [
        {
          "internalType": "uint256",
          "name": "",
          "type": "uint256"
        }
      ],
      "stateMutability": "view",
      "type": "function"
    },
    {
      "inputs": [],
      "name": "renounceOwnership",
      "outputs": [],
      "stateMutability": "nonpayable",
      "type": "function"
    },
    {
      "inputs": [
        {
          "internalType": "address",
          "name": "to",
          "type": "address"
        },
        {
          "internalType": "bytes32",
          "name": "projectIdHash",
          "type": "bytes32"
        },
        {
          "internalType": "bytes32",
          "name": "contributor",
          "type": "bytes32"
        },
        {
          "internalType": "string",
          "name": "uri",
          "type": "string"
        }
      ],
      "name": "safeMint",
      "outputs": [],
      "stateMutability": "nonpayable",
      "type": "function"
    },
    {
      "inputs": [
        {
          "internalType": "address",
          "name": "from",
          "type": "address"
        },
        {
          "internalType": "address",
          "name": "to",
          "type": "address"
        },
        {
          "internalType": "uint256",
          "name": "tokenId",
          "type": "uint256"
        }
      ],
      "name": "safeTransferFrom",
      "outputs": [],
      "stateMutability": "nonpayable",
      "type": "function"
    },
    {
      "inputs": [
        {
          "internalType": "address",
          "name": "from",
          "type": "address"
        },
        {
          "internalType": "address",
          "name": "to",
          "type": "address"
        },
        {
          "internalType": "uint256",
          "name": "tokenId",
          "type": "uint256"
        },
        {
          "internalType": "bytes",
          "name": "data",
          "type": "bytes"
        }
      ],
      "name": "safeTransferFrom",
      "outputs": [],
      "stateMutability": "nonpayable",
      "type": "function"
    },
    {
      "inputs": [
        {
          "internalType": "address",
          "name": "operator",
          "type": "address"
        },
        {
          "internalType": "bool",
          "name": "approved",
          "type": "bool"
        }
      ],
      "name": "setApprovalForAll",
      "outputs": [],
      "stateMutability": "nonpayable",
      "type": "function"
    },
    {
      "inputs": [
        {
          "internalType": "bytes4",
          "name": "interfaceId",
          "type": "bytes4"
        }
      ],
      "name": "supportsInterface",
      "outputs": [
        {
          "internalType": "bool",
          "name": "",
          "type": "bool"
        }
      ],
      "stateMutability": "view",
      "type": "function"
    },
    {
      "inputs": [],
      "name": "symbol",
      "outputs": [
        {
          "internalType": "string",
          "name": "",
          "type": "string"
        }
      ],
      "stateMutability": "view",
      "type": "function"
    },
    {
      "inputs": [
        {
          "internalType": "uint256",
          "name": "tokenId",
          "type": "uint256"
        }
      ],
      "name": "tokenURI",
      "outputs": [
        {
          "internalType": "string",
          "name": "",
          "type": "string"
        }
      ],
      "stateMutability": "view",
      "type": "function"
    },
    {
      "inputs": [
        {
          "internalType": "address",
          "name": "from",
          "type": "address"
        },
        {
          "internalType": "address",
          "name": "to",
          "type": "address"
        },
        {
          "internalType": "uint256",
          "name": "tokenId",
          "type": "uint256"
        }
      ],
      "name": "transferFrom",
      "outputs": [],
      "stateMutability": "nonpayable",
      "type": "function"
    },
    {
      "inputs": [
        {
          "internalType": "address",
          "name": "newOwner",
          "type": "address"
        }
      ],
      "name": "transferOwnership",
      "outputs": [],
      "stateMutability": "nonpayable",
      "type": "function"
    },
    {
      "inputs": [],
      "name": "unpause",
      "outputs": [],
      "stateMutability": "nonpayable",
      "type": "function"
    }
  ],
  "bytecode": "0x60806040523480156200001157600080fd5b506040518060400160405280601481526020017f50726f6f66206f6620446576656c6f706d656e7400000000000000000000000081525060405180604001604052806003815260200162141bd160ea1b8152508160009081620000759190620001a1565b506001620000848282620001a1565b50506007805460ff19169055506200009c33620000a2565b6200026d565b600780546001600160a01b03838116610100818102610100600160a81b031985161790945560405193909204169182907f8be0079c531659141344cd1fd0a4f28419497f9722a3daafe3b4186f6b6457e090600090a35050565b634e487b7160e01b600052604160045260246000fd5b600181811c908216806200012757607f821691505b6020821081036200014857634e487b7160e01b600052602260045260246000fd5b50919050565b601f8211156200019c57600081815260208120601f850160051c81016020861015620001775750805b601f850160051c820191505b81811015620001985782815560010162000183565b5050505b505050565b81516001600160401b03811115620001bd57620001bd620000fc565b620001d581620001ce845462000112565b846200014e565b602080601f8311600181146200020d5760008415620001f45750858301515b600019600386901b1c1916600185901b17855562000198565b600085815260208120601f198616915b828110156200023e578886015182559484019460019091019084016200021d565b50858210156200025d5787850151600019600388901b60f8161c191681555b5050505050600190811b01905550565b611bb3806200027d6000396000f3fe608060405234801561001057600080fd5b50600436106101585760003560e01c806360bae6b6116100c357806395d89b411161007c57806395d89b4114610310578063a22cb46514610318578063b88d4fde1461032b578063c87b56dd1461033e578063e985e9c514610351578063f2fde38b1461038d57600080fd5b806360bae6b6146102905780636352211e146102c457806370a08231146102d7578063715018a6146102ea5780638456cb59146102f25780638da5cb5b146102fa57600080fd5b8063288fcaba11610115578063288fcaba146102005780633f4ba83a1461022957806342842e0e14610231578063482f9cb3146102445780634e3bf0a9146102575780635c975abb1461028557600080fd5b806301ffc9a71461015d57806306fdde0314610185578063081812fc1461019a578063095ea7b3146101c557806323b872dd146101da57806325238e8e146101ed575b600080fd5b61017061016b36600461158d565b6103a0565b60405190151581526020015b60405180910390f35b61018d6103b1565b60405161017c91906115fa565b6101ad6101a836600461160d565b610443565b6040516001600160a01b03909116815260200161017c565b6101d86101d3366004611642565b61046a565b005b6101d86101e836600461166c565b610584565b6101d86101fb366004611734565b6105b5565b6101ad61020e36600461160d565b600a602052600090815260409020546001600160a01b031681565b6101d86106de565b6101d861023f36600461166c565b6106f0565b6101d86102523660046117a9565b61070b565b61027761026536600461160d565b60096020526000908152604090205481565b60405190815260200161017c565b60075460ff16610170565b6101ad61029e3660046117d5565b600b6020908152600092835260408084209091529082529020546001600160a01b031681565b6101ad6102d236600461160d565b610741565b6102776102e53660046117f7565b6107a1565b6101d8610827565b6101d8610839565b60075461010090046001600160a01b03166101ad565b61018d610849565b6101d8610326366004611812565b610858565b6101d861033936600461184e565b610867565b61018d61034c36600461160d565b61089f565b61017061035f36600461189e565b6001600160a01b03918216600090815260056020908152604080832093909416825291909152205460ff1690565b6101d861039b3660046117f7565b6108aa565b60006103ab82610923565b92915050565b6060600080546103c0906118c8565b80601f01602080910402602001604051908101604052809291908181526020018280546103ec906118c8565b80156104395780601f1061040e57610100808354040283529160200191610439565b820191906000526020600020905b81548152906001019060200180831161041c57829003601f168201915b5050505050905090565b600061044e82610973565b506000908152600460205260409020546001600160a01b031690565b600061047582610741565b9050806001600160a01b0316836001600160a01b0316036104e75760405162461bcd60e51b815260206004820152602160248201527f4552433732313a20617070726f76616c20746f2063757272656e74206f776e656044820152603960f91b60648201526084015b60405180910390fd5b336001600160a01b03821614806105035750610503813361035f565b6105755760405162461bcd60e51b815260206004820152603d60248201527f4552433732313a20617070726f76652063616c6c6572206973206e6f7420746f60448201527f6b656e206f776e6572206f7220617070726f76656420666f7220616c6c00000060648201526084016104de565b61057f83836109d2565b505050565b61058e3382610a40565b6105aa5760405162461bcd60e51b81526004016104de90611902565b61057f838383610abf565b6105bd610c30565b6000838152600a60205260409020546001600160a01b03166106105760405162461bcd60e51b815260206004820152600c60248201526b139bdd08185c1c1c9bdd995960a21b60448201526064016104de565b6000838152600b602090815260408083208584529091529020546001600160a01b0316156106695760405162461bcd60e51b8152602060048201526006602482015265135a5b9d195960d21b60448201526064016104de565b600061067460085490565b9050610684600880546001019055565b61068e8582610c90565b6106988183610caa565b600093845260096020908152604080862092909255600b81528185209385529290925250902080546001600160a01b0319166001600160a01b0392909216919091179055565b6106e6610c30565b6106ee610d3d565b565b61057f83838360405180602001604052806000815250610867565b610713610c30565b6000918252600a602052604090912080546001600160a01b0319166001600160a01b03909216919091179055565b6000818152600260205260408120546001600160a01b0316806103ab5760405162461bcd60e51b8152602060048201526018602482015277115490cdcc8c4e881a5b9d985b1a59081d1bdad95b88125160421b60448201526064016104de565b60006001600160a01b03821661080b5760405162461bcd60e51b815260206004820152602960248201527f4552433732313a2061646472657373207a65726f206973206e6f7420612076616044820152683634b21037bbb732b960b91b60648201526084016104de565b506001600160a01b031660009081526003602052604090205490565b61082f610c30565b6106ee6000610d8f565b610841610c30565b6106ee610de9565b6060600180546103c0906118c8565b610863338383610e26565b5050565b6108713383610a40565b61088d5760405162461bcd60e51b81526004016104de90611902565b61089984848484610ef4565b50505050565b60606103ab82610f27565b6108b2610c30565b6001600160a01b0381166109175760405162461bcd60e51b815260206004820152602660248201527f4f776e61626c653a206e6577206f776e657220697320746865207a65726f206160448201526564647265737360d01b60648201526084016104de565b61092081610d8f565b50565b60006001600160e01b031982166380ac58cd60e01b148061095457506001600160e01b03198216635b5e139f60e01b145b806103ab57506301ffc9a760e01b6001600160e01b03198316146103ab565b6000818152600260205260409020546001600160a01b03166109205760405162461bcd60e51b8152602060048201526018602482015277115490cdcc8c4e881a5b9d985b1a59081d1bdad95b88125160421b60448201526064016104de565b600081815260046020526040902080546001600160a01b0319166001600160a01b0384169081179091558190610a0782610741565b6001600160a01b03167f8c5be1e5ebec7d5bd14f71427d1e84f3dd0314c0f7b2291e5b200ac8c7c3b92560405160405180910390a45050565b600080610a4c83610741565b9050806001600160a01b0316846001600160a01b03161480610a9357506001600160a01b0380821660009081526005602090815260408083209388168352929052205460ff165b80610ab75750836001600160a01b0316610aac84610443565b6001600160a01b0316145b949350505050565b826001600160a01b0316610ad282610741565b6001600160a01b031614610af85760405162461bcd60e51b81526004016104de9061194f565b6001600160a01b038216610b5a5760405162461bcd60e51b8152602060048201526024808201527f4552433732313a207472616e7366657220746f20746865207a65726f206164646044820152637265737360e01b60648201526084016104de565b610b67838383600161102f565b826001600160a01b0316610b7a82610741565b6001600160a01b031614610ba05760405162461bcd60e51b81526004016104de9061194f565b600081815260046020908152604080832080546001600160a01b03199081169091556001600160a01b0387811680865260038552838620805460001901905590871680865283862080546001019055868652600290945282852080549092168417909155905184937fddf252ad1be2c89b69c2b068fc378daa952ba7f163c4a11628f55a4df523b3ef91a4505050565b6007546001600160a01b036101009091041633146106ee5760405162461bcd60e51b815260206004820181905260248201527f4f776e61626c653a2063616c6c6572206973206e6f7420746865206f776e657260448201526064016104de565b61086382826040518060200160405280600081525061103c565b6000828152600260205260409020546001600160a01b0316610d255760405162461bcd60e51b815260206004820152602e60248201527f45524337323155524953746f726167653a2055524920736574206f66206e6f6e60448201526d32bc34b9ba32b73a103a37b5b2b760911b60648201526084016104de565b600082815260066020526040902061057f82826119e2565b610d4561106f565b6007805460ff191690557f5db9ee0a495bf2e6ff9c91a7834c1ba4fdd244a5e8aa4e537bd38aeae4b073aa335b6040516001600160a01b03909116815260200160405180910390a1565b600780546001600160a01b03838116610100818102610100600160a81b031985161790945560405193909204169182907f8be0079c531659141344cd1fd0a4f28419497f9722a3daafe3b4186f6b6457e090600090a35050565b610df16110b8565b6007805460ff191660011790557f62e78cea01bee320cd4e420270b5ea74000d11b0c9f74754ebdbfc544b05a258610d723390565b816001600160a01b0316836001600160a01b031603610e875760405162461bcd60e51b815260206004820152601960248201527f4552433732313a20617070726f766520746f2063616c6c65720000000000000060448201526064016104de565b6001600160a01b03838116600081815260056020908152604080832094871680845294825291829020805460ff191686151590811790915591519182527f17307eab39ab6107e8899845ad3d59bd9653f200f220920489ca2b5937696c31910160405180910390a3505050565b610eff848484610abf565b610f0b848484846110fe565b6108995760405162461bcd60e51b81526004016104de90611aa2565b6060610f3282610973565b60008281526006602052604081208054610f4b906118c8565b80601f0160208091040260200160405190810160405280929190818152602001828054610f77906118c8565b8015610fc45780601f10610f9957610100808354040283529160200191610fc4565b820191906000526020600020905b815481529060010190602001808311610fa757829003601f168201915b505050505090506000610fe260408051602081019091526000815290565b90508051600003610ff4575092915050565b81511561102657808260405160200161100e929190611af4565b60405160208183030381529060405292505050919050565b610ab7846111ff565b6110376110b8565b610899565b6110468383611273565b61105360008484846110fe565b61057f5760405162461bcd60e51b81526004016104de90611aa2565b60075460ff166106ee5760405162461bcd60e51b815260206004820152601460248201527314185d5cd8589b194e881b9bdd081c185d5cd95960621b60448201526064016104de565b60075460ff16156106ee5760405162461bcd60e51b815260206004820152601060248201526f14185d5cd8589b194e881c185d5cd95960821b60448201526064016104de565b60006001600160a01b0384163b156111f457604051630a85bd0160e11b81526001600160a01b0385169063150b7a0290611142903390899088908890600401611b23565b6020604051808303816000875af192505050801561117d575060408051601f3d908101601f1916820190925261117a91810190611b60565b60015b6111da573d8080156111ab576040519150601f19603f3d011682016040523d82523d6000602084013e6111b0565b606091505b5080516000036111d25760405162461bcd60e51b81526004016104de90611aa2565b805181602001fd5b6001600160e01b031916630a85bd0160e11b149050610ab7565b506001949350505050565b606061120a82610973565b600061122160408051602081019091526000815290565b90506000815111611241576040518060200160405280600081525061126c565b8061124b8461140c565b60405160200161125c929190611af4565b6040516020818303038152906040525b9392505050565b6001600160a01b0382166112c95760405162461bcd60e51b815260206004820181905260248201527f4552433732313a206d696e7420746f20746865207a65726f206164647265737360448201526064016104de565b6000818152600260205260409020546001600160a01b03161561132e5760405162461bcd60e51b815260206004820152601c60248201527f4552433732313a20746f6b656e20616c7265616479206d696e7465640000000060448201526064016104de565b61133c60008383600161102f565b6000818152600260205260409020546001600160a01b0316156113a15760405162461bcd60e51b815260206004820152601c60248201527f4552433732313a20746f6b656e20616c7265616479206d696e7465640000000060448201526064016104de565b6001600160a01b038216600081815260036020908152604080832080546001019055848352600290915280822080546001600160a01b0319168417905551839291907fddf252ad1be2c89b69c2b068fc378daa952ba7f163c4a11628f55a4df523b3ef908290a45050565b606060006114198361149f565b600101905060008167ffffffffffffffff811115611439576114396116a8565b6040519080825280601f01601f191660200182016040528015611463576020820181803683370190505b5090508181016020015b600019016f181899199a1a9b1b9c1cb0b131b232b360811b600a86061a8153600a850494508461146d57509392505050565b60008072184f03e93ff9f4daa797ed6e38ed64bf6a1f0160401b83106114de5772184f03e93ff9f4daa797ed6e38ed64bf6a1f0160401b830492506040015b6d04ee2d6d415b85acef8100000000831061150a576d04ee2d6d415b85acef8100000000830492506020015b662386f26fc10000831061152857662386f26fc10000830492506010015b6305f5e1008310611540576305f5e100830492506008015b612710831061155457612710830492506004015b60648310611566576064830492506002015b600a83106103ab5760010192915050565b6001600160e01b03198116811461092057600080fd5b60006020828403121561159f57600080fd5b813561126c81611577565b60005b838110156115c55781810151838201526020016115ad565b50506000910152565b600081518084526115e68160208601602086016115aa565b601f01601f19169290920160200192915050565b60208152600061126c60208301846115ce565b60006020828403121561161f57600080fd5b5035919050565b80356001600160a01b038116811461163d57600080fd5b919050565b6000806040838503121561165557600080fd5b61165e83611626565b946020939093013593505050565b60008060006060848603121561168157600080fd5b61168a84611626565b925061169860208501611626565b9150604084013590509250925092565b634e487b7160e01b600052604160045260246000fd5b600067ffffffffffffffff808411156116d9576116d96116a8565b604051601f8501601f19908116603f01168101908282118183101715611701576117016116a8565b8160405280935085815286868601111561171a57600080fd5b858560208301376000602087830101525050509392505050565b6000806000806080858703121561174a57600080fd5b61175385611626565b93506020850135925060408501359150606085013567ffffffffffffffff81111561177d57600080fd5b8501601f8101871361178e57600080fd5b61179d878235602084016116be565b91505092959194509250565b600080604083850312156117bc57600080fd5b823591506117cc60208401611626565b90509250929050565b600080604083850312156117e857600080fd5b50508035926020909101359150565b60006020828403121561180957600080fd5b61126c82611626565b6000806040838503121561182557600080fd5b61182e83611626565b91506020830135801515811461184357600080fd5b809150509250929050565b6000806000806080858703121561186457600080fd5b61186d85611626565b935061187b60208601611626565b925060408501359150606085013567ffffffffffffffff81111561177d57600080fd5b600080604083850312156118b157600080fd5b6118ba83611626565b91506117cc60208401611626565b600181811c908216806118dc57607f821691505b6020821081036118fc57634e487b7160e01b600052602260045260246000fd5b50919050565b6020808252602d908201527f4552433732313a2063616c6c6572206973206e6f7420746f6b656e206f776e6560408201526c1c881bdc88185c1c1c9bdd9959609a1b606082015260800190565b60208082526025908201527f4552433732313a207472616e736665722066726f6d20696e636f72726563742060408201526437bbb732b960d91b606082015260800190565b601f82111561057f57600081815260208120601f850160051c810160208610156119bb5750805b601f850160051c820191505b818110156119da578281556001016119c7565b505050505050565b815167ffffffffffffffff8111156119fc576119fc6116a8565b611a1081611a0a84546118c8565b84611994565b602080601f831160018114611a455760008415611a2d5750858301515b600019600386901b1c1916600185901b1785556119da565b600085815260208120601f198616915b82811015611a7457888601518255948401946001909101908401611a55565b5085821015611a925787850151600019600388901b60f8161c191681555b5050505050600190811b01905550565b60208082526032908201527f4552433732313a207472616e7366657220746f206e6f6e20455243373231526560408201527131b2b4bb32b91034b6b83632b6b2b73a32b960711b606082015260800190565b60008351611b068184602088016115aa565b835190830190611b1a8183602088016115aa565b01949350505050565b6001600160a01b0385811682528416602082015260408101839052608060608201819052600090611b56908301846115ce565b9695505050505050565b600060208284031215611b7257600080fd5b815161126c8161157756fea26469706673582212205107b3bd95de85fcc0740fc9babde51f7af99adede8e4008ab9985cd0b18333164736f6c63430008110033",
  "linkReferences": {},
  "deployedLinkReferences": {}
}